S00D000061747430322E737265636C
S11300000C9434000C9449000C9449000C9449005D
S11300100C9449000C9449000C9449000C94490038
S11300200C9449000C9449000C9449000C94490028
S11300300C9449000C9449000C9449000C94490018
S11300400C9449000C9449000C9449000C94490008
S11300500C9449000C9449000C9449000C944900F8
S11300600C9449000C94490011241FBECFEFD8E032
S1130070DEBFCDBF17E0A0E0B1E0E8EDFBE002C0D9
S113008005900D92AA3CB107D9F70E949C020C94EA
S1130090EA050C9400008F929F92AF92BF92CF9288
S11300A0DF92EF92FF920F931F93CF93DF93C0E001
S11300B0D0E0CB3CD1050CF0C4C0CE01880F991F11
S11300C0FC01E85DFB4F00811181FC01EE56FD4F00
S11300D060817181072E000C880B990B0E945F04CC
S11300E020E030E040EC5FE30E94B5036B017C014B
S11300F04C9914C089B190E0809590959C01207230
S1130100332799B1892F90E080959095887099272D
S1130110822B932B892B21F080E003C080E001C067
S113012081E0882309F45EC0012BC9F085B18160A8
S113013085B9FE01EE0FFF1FE85DFB4F6081718101
S1130140072E000C880B990B0E945F04AB01BC01C5
S11301509701860182E090E00E94B50204C082E02B
S113016090E00E949F0385B18E7F85B920E030E046
S11301704AE755E4C701B6010E9414054B015C012E
S113018020E030E040E85FE30E94B00388231CF1E4
S113019020E03FEF4FE757E4C501B4010E940F058B
S11301A01816A4F420E030E040E251E4C701B6019F
S11301B00E9414050E942E046115710589F080E9DE
S11301C091E00197F1F761507109F6CFC501B401CF
S11301D00E942E0402C061E070E0CB010197F1F7A8
S11301E0219667CF82E090E00E949F034D9914C04E
S11301F080E197E2009731F0E0E9F1E03197F1F71F
S11302000197F8CF8091000190910101019690939C
S113021001018093000115C04B9913C080E197E25E
S1130220009731F0E0E9F1E03197F1F70197F8CF69
S113023080910001909101010197909301018093B5
S11302400001DF91CF911F910F91FF90EF90DF900C
S1130250CF90BF90AF909F908F9008952F923F9230
S11302604F925F926F927F928F929F92AF92BF92C2
S1130270CF92DF92EF92FF920F931F93CF93DF936E
S113028000D000D0CDB7DEB77C011A019B01770FF7
S1130290440B550B60E879EA83E090E00E949505F1
S11302A03A8329831C821B82C12CD12CC101880F63
S11302B0991F2B813C81281739070CF0E4C0890170
S11302C0F9013196EE0FFF1FEE0DFF1D6081718164
S11302D01616170634F489819A810E9481056B01F0
S11302E018C07723B4F471956195710989819A8155
S11302F00E948105072E000C880B990B0E945F0455
S113030020E030E040EC5FE30E9414050E942704E3
S11303106B014C9913C089B190E0809590959C0134
S11303202072332789B190E0809590958870992741
S1130330822B932B892B21F080E003C080E001C045
S113034081E0882309F470C085B1816085B9B60164
S11303500D2C000C880B990B0E945F042B013C01AF
S113036026E636E646E65FE30E9414054B015C018F
S1130370000F111FF701E00FF11F60817181072E3B
S1130380000C880B990B0E945F04AB01BC01950122
S1130390840182E090E00E94B50285B18E7F85B928
S11303A020E030E04AE755E4C301B2010E9414059D
S11303B04B015C0120E030E040E85FE30E94B003C1
S11303C088231CF120E03FEF4FE757E4C501B40157
S11303D00E940F051816A4F420E030E040E251E436
S11303E0C301B2010E9414050E942E046115710517
S11303F089F080E991E00197F1F761507109F6CF36
S1130400C501B4010E942E0402C061E070E0CB017A
S11304100197F1F782E090E00E949F038B819C8119
S113042002969C838B8342CF82E090E00E949F03DC
S11304304D9914C080E197E2009731F0E0E9F1E0D2
S11304403197F1F70197F8CF809100019091010164
S11304500196909301018093000115C04B9913C03C
S113046080E197E2009731F0E0E9F1E03197F1F7AC
S11304700197F8CF80910001909101010197909329
S11304800101809300010F900F900F900F90DF9166
S1130490CF911F910F91FF90EF90DF90CF90BF907D
S11304A0AF909F908F907F906F905F904F903F9010
S11304B02F9008958091000190910101049734F0E8
S11304C081E090E09093010180930001809100010C
S11304D0909101011816190634F083E090E090938E
S11304E0010180930001809100019091010181300C
S11304F0910519F40E944B0008958230910569F426
S11305004091BE055091BF056091C8077091C9071D
S113051080EC95E00E942E010895039761F44091C8
S1130520020150910301609190027091910284E064
S113053091E00E942E01089585E084B91AB88BB128
S113054088608BB98BB180618BB98BB180628BB9B8
S11305504C9903C00E945A02FBCF85B18E7F85B9A6
S113056082E090E00E949F03F3CF3F924F925F920C
S11305706F927F928F929F92AF92BF92CF92DF92AF
S1130580EF92FF920F931F93CF93DF9300D000D08D
S113059000D0CDB7DEB7382E480159019A01AB011E
S11305A060E070E080E89FE30E94B50320E030E063
S11305B04AE754E40E9414056B017C019B01AC01E1
S11305C0C501B4010E94B5030E9427042B013C011C
S11305D020E030E040E05FE3C701B6010E9414056B
S11305E069837A838B839C83812C912C540184149A
S11305F09504A604B7040CF08AC020E030E04AE772
S113060055E469817A818B819C810E9414056B0178
S11306107C0120E030E040E85FE30E94B0038823DF
S11306202CF120E03FEF4FE757E4C701B6010E94E9
S11306300F051816B4F420E030E040E251E469817B
S11306407A818B819C810E9414050E942E0461157D
S1130650710589F080E991E00197F1F76150710922
S1130660F6CFC701B6010E942E0402C061E070E01B
S1130670CB010197F1F785B121E030E0032C02C0F2
S1130680220F331F0A94E2F73E832D83822B85B910
S113069020E030E040E85FE3C701B6010E94B00308
S11306A088232CF120E03FEF4FE757E4C701B60160
S11306B00E940F051816B4F420E030E040E251E443
S11306C069817A818B819C810E9414050E942E0489
S11306D06115710589F080E991E00197F1F76150A6
S11306E07109F6CFC701B6010E942E0402C061E071
S11306F070E0CB010197F1F785B13D813095382346
S113070035B98FEF881A980AA80AB80A70CF2696C6
S11307100FB6F894DEBF0FBECDBFDF91CF911F910E
S11307200F91FF90EF90DF90CF90BF90AF909F908C
S11307308F907F906F905F904F903F90089544B159
S113074021E030E0B90102C0660F771F8A95E2F715
S1130750CB01462B44B995B18095892385B9089579
S11307600E949A0408F481E008950E94C9030C943D
S1130770D5040E94CE0458F00E94C70440F029F426
S11307805F3F29F00C94BE0451110C9409050C949C
S1130790C4040E94E60468F39923B1F3552391F34A
S11307A0951B550BBB27AA2762177307840738F0DC
S11307B09F5F5F4F220F331F441FAA1FA9F335D039
S11307C00E2E3AF0E0E832D091505040E695001CED
S11307D0CAF72BD0FE2F29D0660F771F881FBB1FA7
S11307E0261737074807AB07B0E809F0BB0B802D85
S11307F0BF01FF2793585F4F3AF09E3F510578F0B1
S11308000C94BE040C9409055F3FE4F3983ED4F3C2
S1130810869577956795B795F7959F5FC9F7880F84
S1130820911D9695879597F90895E1E0660F771FD6
S1130830881FBB1F621773078407BA0720F0621B67
S1130840730B840BBA0BEE1F88F7E09508950E9492
S11308502E046894B1110C94090508950E94EE04C5
S113086088F09F5798F0B92F9927B751B0F0E1F06D
S1130870660F771F881F991F1AF0BA95C9F714C01D
S1130880B13091F00E940805B1E008950C94080578
S1130890672F782F8827B85F39F0B93FCCF3869556
S11308A077956795B395D9F73EF4909580957095B3
S11308B061957F4F8F4F9F4F0895E89409C097FB30
S11308C03EF490958095709561957F4F8F4F9F4F23
S11308D09923A9F0F92F96E9BB279395F695879567
S11308E077956795B795F111F8CFFAF4BB0F11F42A
S11308F060FF1BC06F5F7F4F8F4F9F4F16C08823D1
S113090011F096E911C0772321F09EE8872F762F06
S113091005C0662371F096E8862F70E060E02AF047
S11309209A95660F771F881FDAF7880F9695879533
S113093097F90895990F0008550FAA0BE0E8FEEF08
S113094016161706E807F907C0F012161306E4078F
S1130950F50798F0621B730B840B950B39F40A2688
S113096061F0232B242B252B21F408950A2609F466
S1130970A140A6958FEF811D811D089597F99F676A
S113098080E870E060E008959FEF80EC0895002413
S11309900A941616170618060906089500240A94E0
S11309A012161306140605060895092E0394000C66
S11309B011F4882352F0BB0F40F4BF2B11F460FFF5
S11309C004C06F5F7F4F8F4F9F4F089557FD90581E
S11309D0440F551F59F05F3F71F04795880F97FBFF
S11309E0991F61F09F3F79F08795089512161306B9
S11309F01406551FF2CF4695F1DF08C016161706E8
S1130A001806991FF1CF869571056105089408951C
S1130A10E894BB2766277727CB0197F908950E94AE
S1130A209A0408F48FEF08950E9427050C94D504C6
S1130A300E94C70438F00E94CE0420F0952311F0E0
S1130A400C94BE040C94C40411240C9409050E9453
S1130A50E60470F3959FC1F3950F50E0551F629F14
S1130A60F001729FBB27F00DB11D639FAA27F00D03
S1130A70B11DAA1F649F6627B00DA11D661F829F2A
S1130A802227B00DA11D621F739FB00DA11D621F0F
S1130A90839FA00D611D221F749F3327A00D611D2C
S1130AA0231F849F600D211D822F762F6A2F11240E
S1130AB09F5750409AF0F1F088234AF0EE0FFF1F41
S1130AC0BB1F661F771F881F91505040A9F79E3F98
S1130AD0510580F00C94BE040C9409055F3FE4F3C7
S1130AE0983ED4F3869577956795B795F795E795EE
S1130AF09F5FC1F7FE2B880F911D9695879597F9F7
S1130B00089597FB072E16F4009407D077FD09D0BB
S1130B100E94B40507FC05D03EF4909581959F4F43
S1130B200895709561957F4F0895052E97FB1EF4E7
S1130B3000940E94AC0557FD07D00E94C80507FC2D
S1130B4003D04EF40C94AC05509540953095219506
S1130B503F4F4F4F5F4F08959095809570956195E5
S1130B607F4F8F4F9F4F0895AA1BBB1B51E107C0B6
S1130B70AA1FBB1FA617B70710F0A61BB70B881F29
S1130B80991F5A95A9F780959095BC01CD010895B8
S1130B90A1E21A2EAA1BBB1BFD010DC0AA1FBB1F7D
S1130BA0EE1FFF1FA217B307E407F50720F0A21BEF
S1130BB0B30BE40BF50B661F771F881F991F1A945C
S1130BC069F760957095809590959B01AC01BD0186
S10B0BD0CF010895F894FFCF52
S1130BD80100630093020400EE0108000B02080000
S1130BE84B0204000B020800EE010800B8010400DF
S1130BF8B80108000B020800930204004B02080025
S1130C080B020800EE01FCFF0B0208004B02040073
S1130C18930204000B020400B8010400B8010800A0
S1130C28B8010400EE0108000B0208004B02FCFFA7
S1130C38BA0208007003040010030800BA0208008E
S1130C489302FCFF0B020800930204004B02080005
S1130C580B020800EE010400EE0108000B02080074
S1130C684B020400930204000B020400B8010400C0
S1130C78B80104000000040093020400EE01080017
S1130C880B0208004B0204000B020800EE010800E6
S1130C98B8010400B80108000B020800930204001C
S1130CA84B0208000B020800EE01FCFF0B020800CF
S1130CB84B020400930204000B020400B801040070
S1130CC8B8010800B8010400EE0108000B0208008E
S1130CD84B02FCFFBA02080070030400100308006A
S1130CE8BA0208009302FCFF0B02080093020400F6
S1130CF84B0208000B020800EE010400EE01080094
S1130D080B0208004B020400930204000B020400C7
S1130D18B8010400B80104000000040093020200B2
S1130D280B0202004B020200EE0102000B02020059
S1130D38B80102009F010200EE010400000008004F
S1130D48930202000B0202004B020200EE010200B1
S1130D580B02040093020400700302003F03020024
S1130D6890007D007D00FA007D007D007D007D00FF
S1130D78FA007D007D007D007D00FA007D007D0085
S1130D887D007D0077017D007D007D00FA007D00F7
S1130D987D007D007D00FA007D007D007D007D00E2
S1130DA8FA007D007D007D007D0077017D007D00D7
S1130DB87D00FA007D007D007D007D00FA007D0045
S1130DC87D007D007D00FA007D007D007D007D00B2
S1130DD87D00FA007D007D007D00FA007D007D0025
S1130DE8FA007D00FA007D007D007D00FA007D0098
S1130DF87D007D007D0077017701FA007D007D008C
S1130E087D00FA007D007D007D007D00FA007D00F4
S1130E187D007D007D0077017D007D007D00FA0066
S1130E287D007D007D007D00FA007D007D007D0051
S1130E387D00FA007D007D007D007D0077017D0046
S1130E487D007D00FA007D007D007D007D00FA00B4
S1130E587D007D007D007D00FA007D007D007D0021
S1130E687D007D00FA007D007D007D00FA007D0094
S1130E787D00FA007D00FA007D007D007D00FA0007
S1130E887D007D007D007D0077017701FA007D00FB
S1130E987701FA007D0077017D007D007D007D00EB
S1130EA87D007D007D007D007701FA007D007701DB
S1130EB8FA007D0077017D007D007D007D007D00C6
S1130EC8F401FA007D007701FA007D0077017D00C6
S1130ED87D007D007D007D007D007D007D00770123
S1130EE8FA007D007701FA007D0077017D007D001E
S1130EF87D007D007D00F4014A018801B801B80134
S1130F080000B801EE010B020B0200000B024B02B9
S1130F18EE01EE010000B8018801B80100004A01A1
S1130F288801B801B8010000B801EE010B020B02F8
S1130F3800000B024B02EE01EE010000B80188012B
S1130F48B80100004A018801B801B8010000B801DD
S1130F580B024B024B0200004B029302BA02BA0284
S1130F68000093024B029302B8010000B801EE019D
S1130F780B020B0200004B029302B8010000B801F7
S1130F880B02EE01EE0100000B02B801EE010000B5
S1130F98B801B801B801EE010B020B0200000B0204
S1130FA84B02EE01EE010000B8018801B80100000F
S1130FB84A018801B801B8010000B801EE010B022A
S1130FC80B0200000B024B02EE01EE010000B80117
S1130FD88801B80100004A018801B801B80100007D
S1130FE8B8010B024B024B0200004B029302BA02F7
S1130FF8BA02000093024B029302B8010000B80140
S1131008EE010B020B0200004B029302B801000030
S1131018B8010B02EE01EE0100000B02B801EE016B
S11310280000930200000000BA02000000009302CE
S1131038930200001003000093024B02000000001A
S11310484B02000000000B0200000000EE010B023E
S11310580000EE010000B801930200000000BA028B
S113106800000000930293020000100300009302A2
S11310784B02000000004B02000000000B020000BD
S11310880000EE010B020000EE010000B80182002E
S11310988801080006010800370110005D011000EE
S11310A88801080006010800370110005D011000DE
S11310B88801080006010800370110005D011000CE
S11310C88801080006010800370110005D011000BE
S11310D888010800060108004A0110005D0110009B
S11310E888010800060108004A0110005D0110008B
S11310F888010800060108004A0110005D0110007B
S113110888010800060108004A0110005D0110006A
S11311188801FCFF0601FCFF370110005D01100087
S11311288801040006010400370110005D01100065
S11311382601FFFF5D01FCFFE900FCFF37011000F9
S1131148260110005D010400E900FCFF37011000CE
S1131158260110000601FFFF8801FCFF0601FCFFC1
S1131168370110005D011000880104000601040025
S1131178370110005D0110002601FFFF5D01FCFF2F
S1131188E900FCFF37011000260110005D0104008E
S1131198E900FCFF37011000260110000601FFFFDB
S11311A88801FCFF0601FCFF370110005D011000F7
S11311B88801040006010400370110005D011000D5
S11311C82601FEFF5D01FCFFE900FCFF2601F8FF94
S11311D83701F8FF2601F8FFE900F8FF0601FFFFD1
S11311E80B02FEFFD201FEFF0601FEFF8801FEFF8F
S11311F83701FEFF3701FCFF5D01FCFF8801FFFF9B
S11312080B02FEFFD201FEFF0601FEFF8801FEFF6E
S11312183701FEFF3701FCFF2601FCFF0B02080023
S1131228880108009F011000D20110000B02080079
S1131238880108009F011000D20110000B02080069
S1131248880108009F011000D20110000B02080059
S1131258880108009F011000D2011000000004005A
S11312683F031000A403100017040800100308002B
S11312783F031000A4031000170408001003100013
S11312883F031000A403100017040800100308000B
S10D12983F031000A40310009600A9
S9030000FC
