S01700004763634170706C69636174696F6E312E737265635B
S11300000C941D090C943A090C943A090C943A097D
S11300100C943A090C943A090C943A090C943A0950
S11300200C943A090C943A090C943A090C943A0940
S11300300C943A090C943A090C943A090C943A0930
S11300400C943A090C943A090C943A090C943A0920
S11300500C943A090C943A090C943A090C943A0910
S11300600C943A090C943A09450A4C0A5C0A6C0A45
S11300707C0A8C0A9C0AFF0D060E1A0E2E0E420EE6
S1130080560E6A0E07120E122B12481265128212B5
S11300909F12C519CC19DC19EC19FC190C1A1C1A7D
S11300A02C1A930210006E021000930210006E02CC
S11300B0100093021000EE0110004B0210000B021E
S11300C01000B801F8FF060110004A011000B80141
S11300D01000EE01F8FF4A0110009F011000EE012C
S11300E010000B020800000010004A0110009302E7
S11300F010006E021000930210006E0210009302B2
S11301001000EE0110004B0210000B021000B801A9
S1130110F8FF060110004A011000B8011000EE01BA
S1130120F8FF4A0110000B021000EE011000B801A4
S1130130040000000800930210006E0210009302F5
S113014010006E02100093021000EE0110004B022A
S113015010000B021000B801F8FF060110004A015C
S11301601000B8011000EE01F8FF4A0110009F01D1
S11301701000EE0110000B020800000010004A01FC
S11301801000930210006E021000930210006E0221
S1130190100093021000EE0110004B0210000B023D
S11301A01000B801F8FF060110004A011000B80160
S11301B01000EE01F8FF4A0110000B021000EE01DE
S11301C01000B801080000001000EE0110000B023E
S11301D010004B0210009302F8FF88011000BA02CD
S11301E01000930210004B02F8FF5D01100093020F
S11301F010004B0210000B02F8FF4A0110004B02E2
S113020010000B021000EE010800000010004A016B
S11302101000930210000000100000001000930270
S113022010002705100000001000000010006E02EE
S113023010009302100000001000000010006E0275
S11302401000930210006E021000930210006E0260
S1130250100093021000EE0110004B0210000B027C
S11302601000B801080000001000060110004A0147
S11302701000B8011000EE010800000010004A014F
S113028010009F011000EE0110000B020800000096
S113029010004A011000930210006E021000930235
S11302A010006E02100093021000EE0110004B02C9
S11302B010000B021000B801080000001000060135
S11302C010004A011000B8011000EE0108000000FF
S11302D010004A0110000B021000EE011000B801DA
S11302E0080000001000EE0110000B0210004B0289
S11302F010009302F8FF88011000BA021000930264
S113030010004B02F8FF5D011000930210004B0235
S113031010000B02F8FF4A0110004B0210000B0200
S11303201000EE010800000010004A0110009302C2
S113033010000000100000001000930210002705B8
S1130340100000001000000010006E021000930264
S1130350100000001000000010006E021000930254
S113036010006E021000930210006E02100093023F
S11303701000EE0110004B0210000B021000B80137
S1130380080000001000060110004A011000B80126
S11303901000EE010800000010004A0110009F0147
S11303A01000EE0110000B020800000010004A01CA
S11303B01000930210006E021000930210006E02EF
S11303C0100093021000EE0110004B0210000B020B
S11303D01000B801080000001000060110004A01D6
S11303E01000B8011000EE010800000010004A01DE
S11303F010000B021000EE011000B801080000000C
S113040010000B0210000B0210000B0210000B0274
S11304100400BA02F0FF93022000930208004B028A
S11304200800A403F0FF7003200070031000100301
S11304301000BA021000930210004B0210000B02CD
S11304401000D2010800B8010800B801200088019A
S11304502000B8012000EE0120000B0204004B0232
S113046010006E0210009302F8FF93021000BA020B
S11304701000B80110000B0204004B02F0FFEE0163
S113048020000B022000100320008801200010032C
S11304902000B801200010032000EE01200010030A
S11304A020000B022000100320004B022000100348
S11304B02000930220001003200017042000DC0316
S11304C020007003200010032000BA0220009302D1
S11304D020004B02200010032000BA0220004B022F
S11304E020000B02200010032000880120001003CC
S11304F02000B801200010032000EE0120001003AA
S113050020000B022000100320004B0220001003E7
S11305102000930220001003200017042000DC03B5
S113052020007003200010032000BA022000930270
S113053020004B02200010032000BA0220004B02CE
S1130540200093022000BA022000930220006E02D1
S1130550200093022000EE012000930220006E028E
S1130560200093022000EE012000930220006E027E
S113057020009302F8FFEE011000930210006E02B7
S113058010009302F8FFEE01100093021000000027
S11305901000000010006E02100093021000000012
S11305A01000000010006E021000930210006E0292
S11305B0100093021000EE0110004B0210000B0219
S11305C01000B801080000001000060110004A01E4
S11305D01000B8011000EE010800000010004A01EC
S11305E010009F011000EE0110000B020800000033
S11305F010004A011000930210006E0210009302D2
S113060010006E02100093021000EE0110004B0265
S113061010000B021000B8010800000010000601D1
S113062010004A011000B8011000EE01080000009B
S113063010004A0110000B021000EE011000B80176
S1130640080000001000EE0110000B0210004B0225
S113065010009302F8FF88011000BA021000930200
S113066010004B02F8FF5D011000930210004B02D2
S113067010000B02F8FF4A0110004B0210000B029D
S11306801000EE010800000010004A01100093025F
S11306901000000010000000100093021000270555
S11306A0100000001000000010006E021000930201
S11306B0100000001000000010006E0210009302F1
S11306C010004B021000930210006E0210009302FF
S11306D01000EE0110004B0210000B021000B801D4
S11306E0080000001000060110004A011000B801C3
S11306F01000EE010800000010004A0110009F01E4
S11307001000EE0110000B020800000010004A0166
S11307101000930210006E021000930210006E028B
S1130720100093021000EE0110004B0210000B02A7
S11307301000B801080000001000060110004A0172
S11307401000B8011000EE010800000010004A017A
S113075010000B021000EE011000B80108000000A8
S1130760100000001000000008002A02FCFF4B02E9
S1130770040093021000BA021000BA020400BA0284
S113078008009302FCFF4B0204000B021000EE0170
S11307901000B8010400B8010800B80108000B02F9
S11307A00800EE010800B801FCFF2A02FCFF4B021E
S11307B0040093021000BA021000BA020400BA0244
S11307C00800BA02FCFF6E0204004B0210000B0288
S11307D01000D2010400B80108009F010400880140
S11307E00800B801FCFFEE01040000000800DC0072
S11307F0E0FF0601E0FF4A01E0FFB801E0FF0B0261
S1130800E0FF9302E0FF4B02E0FF0B02E0FFEE018A
S1130810E0FFB801E0FF0B02E0FF9302E0FF70038A
S1130820E0FF1704E0FF2705E0FF9704E0FF17044B
S1130830E0FFDC03E0FFB801E0FF0B02E0FF9302FE
S1130840E0FF7003E0FF1704E0FF2705E0FF9704D3
S1130850E0FF1704E0FFDC03E0FFA403E0FF700304
S1130860E0FF3F03E0FF1003E0FFE402E0FFBA0211
S1130870E0FF9302E0FF6E02E0FF4B02E0FF2A027A
S1130880E0FF0B02E0FFEE01E0FFD201E0FFB80160
S1130890E0FF9F01E0FF8801E0FF7201E0FF5D01DE
S11308A0E0FF4A0110006E02100093021000EE01F6
S11308B010004B0210000B021000B801F8FF0601F3
S11308C010004A011000B8011000EE01F8FF4A01BF
S11308D010009F011000EE0110000B020800000040
S11308E010004A011000930210006E0210009302DF
S11308F010006E02100093021000EE0110004B0273
S113090010000B021000B801F8FF060110004A01A4
S11309101000B8011000EE01F8FF4A0110000B02AC
S11309201000EE011000B801F8FF0000F8FF00000D
S1130930F8FF88011000BA021000930210004B0265
S11309400400000008000000F8FF4A0110004B02F8
S113095010000B021000EE01F8FF4A011000930290
S11309600800930208002705F8FF6E0210009302A6
S1130970100000001000000010006E02100093022E
S113098010006E021000930210006E021000930219
S11309901000EE0110004B0210000B021000B80111
S11309A0F8FF060110004A011000B8011000EE0122
S11309B0F8FF4A0110009F011000EE0110000B0225
S11309C00800000010004A011000930210006E029B
S11309D01000930210006E02100093021000EE014A
S11309E010004B0210000B021000B801F8FF0601C2
S11309F010004A011000B8011000EE01F8FF4A018E
S1130A0010000B021000EE011000B801FCFF7D0085
S1130A107D00FA007D007D007D007D00FA007D00F0
S1130A207D007D007D00FA007D007D007D007D005D
S1130A3077017D007D007D00FA007D007D007D0052
S1130A407D00FA007D007D007D007D00FA007D00C0
S1130A507D007D007D0077017D007D007D00FA0032
S1130A607D007D007D007D00FA007D007D007D001D
S1130A707D00FA007D007D007D007D007D00FA0090
S1130A807D007D007D00FA007D007D00FA007D0080
S1130A90FA007D007D007D00FA007D007D007D0070
S1130AA07D0077017701FA007D007D007D00FA006A
S1130AB07D007D007D007D00FA007D007D007D00CD
S1130AC07D0077017D007D007D00FA007D007D00C2
S1130AD07D007D00FA007D007D007D007D00FA0030
S1130AE07D007D007D007D0077017D007D007D001F
S1130AF0FA007D007D007D007D00FA007D007D0010
S1130B007D007D00FA007D007D007D007D007D007C
S1130B10FA007D007D007D00FA007D007D00FA0072
S1130B207D00FA007D007D007D00FA007D007D00DF
S1130B307D007D0077017701FA007D007701FA00DE
S1130B407D0077017D007D007D007D007D007D00BE
S1130B507D007D007701FA007D007701FA007D00B9
S1130B6077017D007D007D007D007D00F401FA00A9
S1130B707D007701FA007D0077017D007D007D0016
S1130B807D007D007D007D007D007701FA007D0001
S1130B907701FA007D0077017D007D007D007D00F6
S1130BA07D00F4014A018801B801B8010000B801D0
S1130BB0EE010B020B0200000B024B02EE01EE01F0
S1130BC00000B8018801B80100004A018801B80199
S1130BD0B8010000B801EE010B020B0200000B0289
S1130BE04B02EE01EE010000B8018801B8010000DB
S1130BF04A018801B801B8010000B8010B024B0298
S1130C004B0200004B029302BA02BA0200009302A4
S1130C104B029302B8010000B801EE010B020B0273
S1130C2000004B029302B8010000B8010B02EE0170
S1130C30EE0100000B02B801EE010000B801B8019A
S1130C40B801EE010B020B0200000B024B02EE0195
S1130C50EE010000B8018801B80100004A018801D2
S1130C60B801B8010000B801EE010B020B0200004C
S1130C700B024B02EE01EE010000B8018801B8013D
S1130C8000004A018801B801B8010000B8010B0254
S1130C904B024B0200004B029302BA02BA0200005C
S1130CA093024B029302B8010000B801EE010B025B
S1130CB00B0200004B029302B8010000B8010B02C2
S1130CC0EE01EE0100000B02B801EE0100009302F8
S1130CD000000000BA02000000009302930200002A
S1130CE01003000093024B02000000004B020000BE
S1130CF000000B0200000000EE010B020000EE01F8
S1130D000000B801930200000000BA0200000000D5
S1130D109302930200001003000093024B020000B0
S1130D2000004B02000000000B0200000000EE0176
S1130D300B020000EE010000B80193020400EE0172
S1130D4008000B0208004B0204000B020800EE012D
S1130D500800B8010400B80108000B02080093025F
S1130D6004004B0208000B020800EE01FCFF0B021A
S1130D7008004B020400930204000B020400B801B3
S1130D800400B8010800B8010400EE0108000B02D9
S1130D9008004B02FCFFBA020800700304001003B1
S1130DA00800BA0208009302FCFF0B020800930239
S1130DB004004B0208000B020800EE010400EE01DF
S1130DC008000B0208004B020400930204000B020B
S1130DD00400B8010400B8010400000004009302F8
S1130DE00400EE0108000B0208004B0204000B0291
S1130DF00800EE010800B8010400B80108000B0265
S1130E000800930204004B0208000B020800EE01E4
S1130E10FCFF0B0208004B020400930204000B02C7
S1130E200400B8010400B8010800B8010400EE0190
S1130E3008000B0208004B02FCFFBA020800700312
S1130E40040010030800BA0208009302FCFF0B021E
S1130E500800930204004B0208000B020800EE0194
S1130E600400EE0108000B0208004B020400930288
S1130E7004000B020400B8010400B80104000000DF
S1130E800400930202000B0202004B020200EE0176
S1130E9002000B020200B80102009F010200EE01F1
S1130EA0040000000800930202000B0202004B023F
S1130EB00200EE0102000B0204009302040070031E
S1130EC002003F03020000000200000004000000D2
S1130ED00800370108004A01FCFF00000800720105
S1130EE008008801FCFF00000800370108004A01DF
S1130EF0F8FF720108008801F8FF0B020800EE01F8
S1130F00F8FF4A0108008801F8FFEE010800D20149
S1130F100200B801F0FF8801F0FF4A01F0FF26014A
S1130F20F0FF4A010200000004000000080037013D
S1130F3004004A01FCFF0000080072010800880157
S1130F40FCFF00000800370108004A01F8FF7201A5
S1130F5008008801F8FF0B020800EE01F8FF880181
S1130F600800EE01F8FF930208006E0201004B0234
S1130F7002000000040000000800370108004A01D4
S1130F80FCFF00000800720108008801FCFF00005B
S1130F900800370108004A01F8FF720108008801BF
S1130FA0F8FF0B020800EE01F8FF4A01080088016F
S1130FB0F8FFEE010800D2010200B801F0FF880139
S1130FC0F0FF4A01F0FF2601F0FF4A01FCFF000098
S1130FD00400000004009302F8FF4B020800EE0135
S1130FE0F8FFB80108008801F8FF4A01F8FFD201B0
S1130FF01000B801F8FFD2011000B801F8FFD201C7
S11310001000B801F8FFD2011000B801F8FF880100
S1131010F0FF4A01F0FF2601F0FF4A0110004A01E7
S113102010004A0102008801080006010800370187
S113103010005D0110008801080006010800370156
S113104010005D0110008801080006010800370146
S113105010005D0110008801080006010800370136
S113106010005D01100088010800060108004A0113
S113107010005D01100088010800060108004A0103
S113108010005D01100088010800060108004A01F3
S113109010005D01100088010800060108004A01E3
S11310A010005D0110008801FCFF0601FCFF370100
S11310B010005D01100088010400060104003701DE
S11310C010005D0110002601FFFF5D01FCFFE90037
S11310D0FCFF37011000260110005D010400E90047
S11310E0FCFF37011000260110000601FFFF8801F4
S11310F0FCFF0601FCFF370110005D0110008801B0
S1131100040006010400370110005D0110002601EF
S1131110FFFF5D01FCFFE900FCFF37011000260121
S113112010005D010400E900FCFF370110002601F6
S113113010000601FFFF8801FCFF0601FCFF3701D8
S113114010005D011000880104000601040037014D
S113115010005D0110002601FEFF5D01FCFFE900A7
S1131160FCFF2601F8FF3701F8FF2601F8FFE9002C
S1131170F8FF0601FFFF0B02FEFFD201FEFF06018E
S1131180FEFF8801FEFF3701FEFF3701FCFF5D0112
S1131190FCFF8801FFFF0B02FEFFD201FEFF0601E8
S11311A0FEFF8801FEFF3701FEFF3701FCFF260129
S11311B0FCFF0B020800880108009F011000D20107
S11311C010000B020800880108009F011000D201E2
S11311D010000B020800880108009F011000D201D2
S11311E010000B020800880108009F011000D201C2
S11311F01000000004003F031000A40310001704B3
S11312000800100308003F031000A4031000170493
S11312100800100310003F031000A403100017047B
S11312200800100308003F031000A40310001F1C53
S11312301F1E1F1E1F1F1E1F1E1F11241FBECFEFA8
S1131240D8E0DEBFCDBF16E0A0E0B1E0E2ECFDE403
S113125002C005900D92A83BB107D9F726E0A8EB90
S1131260B6E001C01D92A43CB207E1F70E94C7207A
S11312700C94DF260C940000982F92959F70292FD0
S1131280220F920F292F220F821B089550E091E024
S113129008C0E92FF0E0E35DFD4EE4914E0F511DCF
S11312A09F5F9617B0F3633028F0982F937011F472
S11312B04F5F5F4F282F30E06DE671E0269FC0013D
S11312C0279F900D369F900D1124480F591F2D5FB5
S11312D03F4FC90199230CF40396959587959595ED
S11312E08795840F951F0197089545B1982F907F96
S11312F0292F30E03595279535952795942F937CA4
S1131300292B25B995B19E7F95B995B1926095B970
S113131025E0922F9A95F1F795B19D7F95B9E0E27A
S1131320F3E03197F1F735B18F7090E0880F991F92
S1131330880F991F932F937C892B85B985B182607F
S113134085B9822F8A95F1F785B18D7F85B980E4BF
S11313509FE10197F1F7089545B1982F907F292FC8
S113136030E03595279535952795942F937C292B37
S113137025B995B1916095B995B1926095B925E07B
S1131380922F9A95F1F795B19D7F95B9E0E2F3E03C
S11313903197F1F735B18F7090E0880F991F880F5E
S11313A0991F932F937C892B85B985B1826085B968
S11313B0822F8A95F1F785B18D7F85B980E49FE10D
S11313C00197F1F708958FEF84B988EC90E005C098
S11313D0E0E9F1E03197F1F701970097C9F782E06E
S11313E00E94750988E20E9475098CE00E947509C3
S11313F086E00E94750980E49FE10197F1F7089562
S11314000F931F93CF93DF938C01C0E0D0E003C010
S11314100E94AC092196F801EC0FFD1F8081811117
S1131420F7CFDF91CF911F910F910895CF93DF9361
S1131430EA01811108C0603130F4862F8F70806812
S11314400E94750909C0813039F4603128F4862F6F
S11314508F70806C0E947509CE010E94000ADF9192
S1131460CF91089581E00E94750980E80E94750972
S11314700895E0911901F0911A01E730F10508F09F
S113148061C0EC5CFF4F0C946A2381E090E0909380
S11314901A018093190108950E94E3090E94320AF7
S11314A086E491E00E94000A80EC0E94750987E5B9
S11314B091E00E94000A08950E94E3090E94320A02
S11314C087E691E00E94000A80EC0E94750988E793
S11314D091E00E94000A08950E94E3090E94320AE2
S11314E088E891E00E94000A80EC0E94750985E971
S11314F091E00E94000A08950E94E3090E94320AC2
S113150082EA91E00E94000A80EC0E9475098FEA49
S113151091E00E94000A08950E94E3090E94320AA1
S113152085E991E00E94000A80EC0E9475098CEB29
S113153091E00E94000A089584E090E090932001D5
S113154080931F0108958F929F92AF92BF92CF9282
S1131550DF92EF92FF920F931F93CF93DF93CDB758
S1131560DEB7A8970FB6F894DEBF0FBECDBF6B01F0
S11315705A018053984F4C010A301105ECF48AE06B
S1131580E816F104CCF42A303105B4F4FF92EF925A
S11315901F930F933F932F9386EC91E09F938F9328
S11315A0CE0101969F938F930E94E5230FB6F89482
S11315B0DEBF0FBECDBFB7C02A303105CCF40A3030
S11315C01105B4F4FF92EF921F930F933F932F935F
S11315D08AED91E09F938F93CE0101969F938F9311
S11315E00E94E5230FB6F894DEBF0FBECDBF9BC0AB
S11315F02A303105D4F49AE0E916F104B4F4FF92E8
S1131600EF921F930F933F932F938DEE91E09F934F
S11316108F93CE0101969F938F930E94E5230FB67B
S1131620F894DEBF0FBECDBF7EC00A301105D4F4DE
S11316309AE0E916F104B4F4FF92EF921F930F932A
S11316403F932F9380E092E09F938F93CE01019676
S11316509F938F930E94E5230FB6F894DEBF0FBECD
S1131660CDBF61C00A301105B4F4FF92EF921F930D
S11316700F933F932F9383E192E09F938F93CE0137
S113168001969F938F930E94E5230FB6F894DEBFD3
S11316900FBECDBF48C09AE0E916F104B4F4FF923E
S11316A0EF921F930F933F932F9385E292E09F93C2
S11316B08F93CE0101969F938F930E94E5230FB6DB
S11316C0F894DEBF0FBECDBF2EC02A303105B4F46E
S11316D0FF92EF921F930F933F932F9387E392E030
S11316E09F938F93CE0101969F938F930E94E5233E
S11316F00FB6F894DEBF0FBECDBF15C0FF92EF92B8
S11317001F930F933F932F9389E492E09F938F93BA
S1131710CE0101969F938F930E94E5230FB6F89410
S1131720DEBF0FBECDBF9AE0C916D104D4F48AE05F
S1131730A816B104B4F4BF92AF92DF92CF929F92F5
S11317408F928AE592E09F938F93CE0145969F9363
S11317508F930E94E5230FB6F894DEBF0FBECDBF72
S113176049C09AE0C916D104B4F4BF92AF92DF9293
S1131770CF929F928F928CE692E09F938F93CE01AB
S113178045969F938F930E94E5230FB6F894DEBF8E
S11317900FBECDBF2FC09AE0A916B104B4F4BF9216
S11317A0AF92DF92CF929F928F928DE792E09F93B8
S11317B08F93CE0145969F938F930E94E5230FB696
S11317C0F894DEBF0FBECDBF15C0BF92AF92DF92BB
S11317D0CF929F928F928EE892E09F938F93CE0147
S11317E045969F938F930E94E5230FB6F894DEBF2E
S11317F00FBECDBFCE0101960E94000A80EC0E946C
S11318007509CE0145960E94000A80E80E94750978
S1131810A8960FB6F894DEBF0FBECDBFDF91CF916F
S11318201F910F91FF90EF90DF90CF90BF90AF90FA
S11318309F908F900895CF93DF93CDB7DEB76497D1
S11318400FB6F894DEBF0FBECDBF6A307105E4F465
S11318504A305105CCF48A309105B4F45F934F9328
S11318607F936F939F938F938CEC91E09F938F93CF
S1131870CE0101969F938F930E94E5230FB6F894AF
S1131880DEBF0FBECDBFB4C08A309105CCF46A3040
S11318907105B4F45F934F937F936F939F938F93EA
S11318A080EE91E09F938F93CE0101969F938F9347
S11318B00E94E5230FB6F894DEBF0FBECDBF98C0DB
S11318C08A309105CCF44A305105B4F45F934F93B8
S11318D07F936F939F938F9383EF91E09F938F9365
S11318E0CE0101969F938F930E94E5230FB6F8943F
S11318F0DEBF0FBECDBF7CC06A307105CCF44A3068
S11319005105B4F45F934F937F936F939F938F9399
S113191086E092E09F938F93CE0101969F938F93DD
S11319200E94E5230FB6F894DEBF0FBECDBF60C0A2
S11319306A307105B4F45F934F937F936F939F93D1
S11319408F9389E192E09F938F93CE0101969F93A9
S11319508F930E94E5230FB6F894DEBF0FBECDBF70
S113196047C04A305105B4F45F934F937F936F930C
S11319709F938F938BE292E09F938F93CE01019676
S11319809F938F930E94E5230FB6F894DEBF0FBE9A
S1131990CDBF2EC08A309105B4F45F934F937F93EB
S11319A06F939F938F938DE392E09F938F93CE01D8
S11319B001969F938F930E94E5230FB6F894DEBFA0
S11319C00FBECDBF15C05F934F937F936F939F93CB
S11319D08F938EE992E09F938F93CE0101969F930C
S11319E08F930E94E5230FB6F894DEBF0FBECDBFE0
S11319F0CE0101960E94000A64960FB6F894DEBFE9
S1131A000FBECDBFDF91CF910895CF93DF93CDB7B4
S1131A10DEB764970FB6F894DEBF0FBECDBF805318
S1131A20984F6A307105CCF44A305105B4F45F9391
S1131A304F937F936F939F938F938FEA92E09F933B
S1131A408F93CE0101969F938F930E94E5230FB647
S1131A50F894DEBF0FBECDBF47C06A307105B4F441
S1131A605F934F937F936F939F938F9380EC92E058
S1131A709F938F93CE0101969F938F930E94E523AA
S1131A800FB6F894DEBF0FBECDBF2EC04A3051054D
S1131A90B4F45F934F937F936F939F938F9380EDF1
S1131AA092E09F938F93CE0101969F938F930E9410
S1131AB0E5230FB6F894DEBF0FBECDBF15C05F930C
S1131AC04F937F936F939F938F9380EE92E09F93B6
S1131AD08F93CE0101969F938F930E94E5230FB6B7
S1131AE0F894DEBF0FBECDBFCE0101960E94000A5E
S1131AF064960FB6F894DEBF0FBECDBFDF91CF91D1
S1131B000895CF93DF93CDB7DEB764970FB6F894FB
S1131B10DEBF0FBECDBF8A309105BCF46A307105BB
S1131B20A4F47F936F939F938F938FEE92E09F9390
S1131B308F93CE0101969F938F930E94E5230FB656
S1131B40F894DEBF0FBECDBF41C06A307105A4F466
S1131B507F936F939F938F9380EF92E09F938F93E4
S1131B60CE0101969F938F930E94E5230FB6F894BC
S1131B70DEBF0FBECDBF2AC08A309105A4F47F9387
S1131B806F939F938F9382E093E09F938F93CE0103
S1131B9001969F938F930E94E5230FB6F894DEBFBE
S1131BA00FBECDBF13C07F936F939F938F9383E03A
S1131BB093E09F938F93CE0101969F938F930E94FE
S1131BC0E5230FB6F894DEBF0FBECDBFCE0101965C
S1131BD00E94000A64960FB6F894DEBF0FBECDBF14
S1131BE0DF91CF910895E0911F01F0912001E7303A
S1131BF0F10508F075C0E55CFF4F0C946A2381E0A1
S1131C0090E09093200180931F0108950E94E309BE
S1131C100E94320A84E193E00E94000A80EC0E9450
S1131C207509E6E2F1E062817381808191810E940D
S1131C30810D08950E94E3090E94320A85E293E02F
S1131C400E94000A80EC0E947509E6E2F1E06681D8
S1131C507781848195810E94810D08950E94E30912
S1131C600E94320A86E393E00E94000A80EC0E94FC
S1131C707509E6E2F1E062857385808591850E94AD
S1131C80810D08950E94E3090E94320A87E493E0DB
S1131C900E94000A80EC0E947509E6E2F1E0668584
S1131CA07785848595850E94810D08950E94E309B6
S1131CB00E94320A88E593E00E94000A80EC0E94A8
S1131CC07509E6E2F1E062897389808991890E944D
S1131CD0810D089584E090E09093200180931F018A
S1131CE00895AF92BF92CF92DF92EF92FF920F933B
S1131CF01F93CF93DF93CDB7DEB7A0970FB6F894B9
S1131D00DEBF0FBECDBF7C0180EF8AB98FE78BB9F0
S1131D108CE0EAE3F1E0DE01119601900D928A95E0
S1131D20E1F70E94E309FE013D968AE0DF011D927E
S1131D308A95E9F7C12CD12C00E010E0BB24B394C0
S1131D40053011050CF0B12C81E00230110509F4C5
S1131D5080E08B2109F4A8C08BB18F708BB989B155
S1131D608F708F30C9F789B18F708F30E1F38FEEA8
S1131D708BB989B18F708F3071F48FED8BB989B1C4
S1131D808F708F3051F48FEB8BB989B18F708F3096
S1131D9071F392E003C090E001C091E08E3089F4C9
S1131DA0E1E0F0E0EC0FFD1FE90FF11DC080D12C44
S1131DB04AE050E0BE01635F7F4FC6010E94B52335
S1131DC036C08D3089F4E4E0F0E0EC0FFD1FE90F3C
S1131DD0F11DC080D12C4AE050E0BE01635F7F4F0B
S1131DE0C6010E94B52323C08B3089F4E7E0F0E0FC
S1131DF0EC0FFD1FE90FF11DC080D12C4AE050E02B
S1131E00BE01635F7F4FC6010E94B52310C0EAE0A4
S1131E10F0E0EC0FFD1FE90FF11DC080D12C4AE06A
S1131E2050E0BE01635F7F4FC6010E94B523C60127
S1131E300E97029708F440C0F801EE0FFF1F81E0EF
S1131E4090E08C0F9D1FE80FF91FD78AC68AA02E39
S1131E50AE01435F5F4F602F80E00E94160A80EC62
S1131E600E94750949E653E0602F81E00E94160A3A
S1131E7081E00330110509F480E0B82241F06FEFEE
S1131E806A0D40E053E081E00E94160A0AC0033064
S1131E90110539F46EEF6A0D40E053E081E00E94D1
S1131EA0160A0F5F1F4F08C00230110519F40F5FA7
S1131EB01F4F02C000E010E09EE0C916D10409F0F3
S1131EC076C08F89988D9C01220F331F880F991F2C
S1131ED0880F991F880F991F820F931F298D3A8DA0
S1131EE0820F931F883191050CF041C02D8D3E8DDA
S1131EF0A901440F551F220F331F220F331F220F36
S1131F00331F240F351F4F8D58A1240F351F2C3339
S1131F1031056CF5F701EE0FFF1FEE0FFF1FEA5DB1
S1131F20FE4F9183808333832283F701EF5DFE4F5D
S1131F3081E080830E94320A8BE693E00E94000ACB
S1131F4088E893E105C0E0E9F1E03197F1F7019702
S1131F500097C9F70E94F30D80E197E205C0E0E91C
S1131F60F1E03197F1F701970097C9F736C00E9465
S1131F70320A8AE793E00E94000A80E197E205C0F2
S1131F80E0E9F1E03197F1F701970097C9F70E9472
S1131F90320AF701EE0FFF1FEE0FFF1FEA5DFE4F3F
S1131FA062817381808191810E94810DC7CEAFE0EF
S1131FB0CA16D10409F0C2CE8FE08AB98BB18E7FE4
S1131FC08BB90E94F30D80E197E205C0E0E9F1E0EE
S1131FD03197F1F701970097C9F7A0960FB6F894D7
S1131FE0DEBF0FBECDBFDF91CF911F910F91FF9048
S1131FF0EF90DF90CF90BF90AF9008950E94E309D7
S11320000E94320AE6E2F1E062817381808191816B
S11320100E94810D80E090E00E94710E08950E945C
S1132020E3090E94320AE6E2F1E066817781848165
S113203095810E94810D81E090E00E94710E0895C7
S11320400E94E3090E94320AE6E2F1E062857385A8
S1132050808591850E94810D82E090E00E94710E3E
S113206008950E94E3090E94320AE6E2F1E06685DF
S11320707785848595850E94810D83E090E00E9498
S1132080710E08950E94E3090E94320AE6E2F1E02B
S113209062897389808991890E94810D84E090E02E
S11320A00E94710E089580911F0190912001833048
S11320B0910599F034F48130910549F0029751F07B
S11320C008958430910561F0059769F008950E94A0
S11320D0FE0F08950E940F1008950E942010089585
S11320E00E94311008950E9442100895CF93DF9307
S11320F0CDB7DEB764970FB6F894DEBF0FBECDBF81
S11321006A307105CCF44A305105B4F45F934F93AF
S11321107F936F939F938F9388E893E09F938F931C
S1132120CE0101969F938F930E94E5230FB6F894F6
S1132130DEBF0FBECDBF47C04A305105B4F45F9334
S11321404F937F936F939F938F938CE993E09F9327
S11321508F93CE0101969F938F930E94E5230FB630
S1132160F894DEBF0FBECDBF2EC06A307105B4F443
S11321705F934F937F936F939F938F938FEA93E033
S11321809F938F93CE0101969F938F930E94E52393
S11321900FB6F894DEBF0FBECDBF15C05F934F934B
S11321A07F936F939F938F9382EC93E09F938F938E
S11321B0CE0101969F938F930E94E5230FB6F89466
S11321C0DEBF0FBECDBFCE0101960E94000A649609
S11321D00FB6F894DEBF0FBECDBFDF91CF91089547
S11321E0CF93DF93EC0180911B0190911C0182300D
S11321F0910579F12CF4009759F0019781F063C0AF
S11322008330910509F43FC0049709F456C05BC0BC
S113221081E090E090931C0180931B0154C00E94C4
S1132220E3090E94320AFE01EE0FFF1FEE0FFF1FAB
S1132230EA5DFE4F4281538160817181CE010E942B
S1132240761080EC0E94750984ED93E00E94000AE8
S11322503AC00E94E3090E94320AFE01EE0FFF1FFA
S1132260EE0FFF1FEA5DFE4F428153816081718151
S1132270CE010E94761080EC0E94750985EE93E0F1
S11322800E94000A20C00E94E3090E94320AFE0153
S1132290EE0FFF1FEE0FFF1FEA5DFE4F42815381D9
S11322A060817181CE010E94761080EC0E947509D4
S11322B086EF93E00E94000A06C081E090E09093CC
S11322C01C0180931B01DF91CF910895CF93DF937D
S11322D0CDB7DEB764970FB6F894DEBF0FBECDBF9F
S11322E06A307105CCF44A305105B4F45F934F93CE
S11322F07F936F939F938F9387E094E09F938F9343
S1132300CE0101969F938F930E94E5230FB6F89414
S1132310DEBF0FBECDBF47C04A305105B4F45F9352
S11323204F937F936F939F938F938BE194E09F934D
S11323308F93CE0101969F938F930E94E5230FB64E
S1132340F894DEBF0FBECDBF2EC06A307105B4F461
S11323505F934F937F936F939F938F938EE294E059
S11323609F938F93CE0101969F938F930E94E523B1
S11323700FB6F894DEBF0FBECDBF15C05F934F9369
S11323807F936F939F938F9381E494E09F938F93B4
S1132390CE0101969F938F930E94E5230FB6F89484
S11323A0DEBF0FBECDBFCE0101960E94000A649627
S11323B00FB6F894DEBF0FBECDBFDF91CF91089565
S11323C0811109C0672B39F4452B29F483E594E086
S11323D00E94000A0895811105C084E694E00E94D9
S11323E0000A0895882321F086E794E00E94000AF9
S11323F00895CF93DF93E0911D01F0911E01E73022
S1132400F10508F0A2C0EE5BFF4F0C946A2381E053
S113241090E090931E0180931D0197C00E94E309F0
S11324200E94320AC6E2D1E04A815B8168817981E7
S113243080911D0190911E010E94661180EC0E9402
S11324407509809121014A815B816881798190E0DD
S11324500E94E0117AC00E94E3090E94320AC6E297
S1132460D1E04E815F816C817D8180911D019091CD
S11324701E010E94661180EC0E9475098091220160
S11324804E815F816C817D8190E00E94E0115DC08E
S11324900E94E3090E94320AC6E2D1E04A855B85C4
S11324A06885798580911D0190911E010E946611B5
S11324B080EC0E947509809123014A855B856885BB
S11324C0798590E00E94E01140C00E94E3090E94D7
S11324D0320AC6E2D1E04E855F856C857D858091A8
S11324E01D0190911E010E94661180EC0E947509E5
S11324F0809124014E855F856C857D8590E00E94E6
S1132500E01123C00E94E3090E94320AC6E2D1E02E
S11325104A895B896889798980911D0190911E019E
S11325200E94661180EC0E947509809125014A89F8
S11325305B896889798990E00E94E01106C084E093
S113254090E090931E0180931D01DF91CF91089537
S1132550E0911D01F0911E01E05EFE4F81E0808359
S11325600E94320A88E894E00E94000A80E197E21F
S113257005C0E0E9F1E03197F1F701970097C9F759
S11325800E94F9110895E0911D01F0911E01E05E91
S1132590FE4F10820E94320A84E994E00E94000AED
S11325A080E197E205C0E0E9F1E03197F1F70197A6
S11325B00097C9F70E94F911089580911D01909127
S11325C01E010197FC01EE0FFF1FEE0FFF1FEA5DD6
S11325D0FE4F1182108213821282FC01EF5DFE4FC6
S11325E010820E94320A81EA94E00E94000A80E18B
S11325F097E205C0E0E9F1E03197F1F70197009720
S1132600C9F70E94F911089580911B0190911C0152
S11326108230910541F08330910541F0019741F4F6
S11326200E94A81208950E94C31208950E94DD1208
S113263008958FE08AB98BB18E7F8BB9309910C021
S113264006C0E0E9F1E03197F1F7019702C080E1BB
S113265097E20097B1F70E94320A0E94041308958A
S113266031990DC00E94F91180E197E205C0E0E9BB
S1132670F1E03197F1F701970097C9F708954C9964
S11326801AC080911B0190911C01019790931C0129
S113269080931B0180911D0190911E010E94F010F6
S11326A080E197E205C0E0E9F1E03197F1F70197A5
S11326B00097C9F7BECF4E99BCCF80911B01909172
S11326C01C01019690931C0180931B0180911D01B4
S11326D090911E010E94F01080E197E205C0E0E9AC
S11326E0F1E03197F1F701970097C9F7A2CF81E0A4
S11326F090E090931C0180931B010E94F0100E94B3
S11327001913089581E090E090931C0180931B01BC
S113271082E090E00E94F0100E941913089581E075
S113272090E090931C0180931B0183E090E00E9451
S1132730F0100E941913089581E090E090931C0119
S113274080931B0184E090E00E94F0100E94191312
S1132750089581E090E090931C0180931B0185E033
S113276090E00E94F0100E941913089580911D01B9
S113277090911E018330910599F034F481309105D4
S113278049F0029751F008958430910561F005975E
S113279069F008950E94771308950E9482130895A2
S11327A00E948F1308950E949C1308950E94A913F8
S11327B00895CF93DF93CDB7DEB764970FB6F8943F
S11327C0DEBF0FBECDBF8A309105BCF46A307105FF
S11327D0A4F47F936F939F938F9382EB94E09F93E2
S11327E08F93CE0101969F938F930E94E5230FB69A
S11327F0F894DEBF0FBECDBF41C06A307105A4F4AA
S11328007F936F939F938F9385EC94E09F938F9323
S1132810CE0101969F938F930E94E5230FB6F894FF
S1132820DEBF0FBECDBF2AC08A309105A4F47F93CA
S11328306F939F938F9387ED94E09F938F93CE0133
S113284001969F938F930E94E5230FB6F894DEBF01
S11328500FBECDBF13C07F936F939F938F9389EE69
S113286094E09F938F93CE0101969F938F930E9440
S1132870E5230FB6F894DEBF0FBECDBFCE0101969F
S11328800E94000A80EC0E9475098AEF94E00E947D
S1132890000A64960FB6F894DEBF0FBECDBFDF9179
S11328A0CF91089580E28093B80084E08093BC00C7
S11328B081E08093B900089584EA8093BC008091FC
S11328C0BC008823E4F7089580ED8093BB0084E87E
S11328D08093BC008091BC008823E4F7089581EDC7
S11328E08093BB0084E88093BC008091BC00882363
S11328F0E4F708959DEC899F912D11249695969562
S11329009695292F220F920F292F220F820F0895B7
S11329108093BB0084E88093BC008091BC00882332
S1132920E4F7089584E98093BC00089584EC8093CF
S1132930BC008091BC008823E4F78091BB0008951B
S113294084E88093BC008091BC008823E4F78091E4
S1132950BB0008950E944609AC014A5F5F4F9A018B
S1132960A3E9B4E20E947023281B390B36952795FE
S1132970820F931F96958795969587959C01220FB4
S1132980331F220F331F220F331FB901681B790B2A
S1132990CB01742F781B872F0895DF92EF92FF925B
S11329A00F931F93CF93DF939BE39E1508F460C0AE
S11329B00C3308F05FC0283108F05EC0442309F4EA
S11329C05DC0403208F05CC0662309F45BC06D3022
S11329D008F05AC0843608F059C0E62FF0E0E35DF1
S11329E0FD4EE491E41708F453C0D22EC42FD62F21
S11329F0182F0E94AA14F82E0E9452140E945C14EC
S1132A000E94641480E090E00E9488148E2D0E943D
S1132A107A1490E00E948814802F0E947A1490E027
S1132A200E9488148D2D0E947A1490E00E948814CC
S1132A308F2D0E947A1490E00E9488148C2F0E949B
S1132A407A1490E00E9488148D2F0E947A1490E0EA
S1132A500E948814812F0E947A1490E00E948814A6
S1132A6080E090E00E9488140E94881481E011C0E4
S1132A7088E00FC088E00DC088E00BC088E009C082
S1132A8088E007C088E005C088E003C088E001C092
S1132A9080E0DF91CF911F910F91FF90EF90DF9035
S1132AA008958F929F92AF92BF92CF92DF92EF924E
S1132AB0FF920F931F93CF93DF93EC016B015A01A5
S1132AC049010E9452140E945C140E94641480E024
S1132AD090E00E9488140E9492140E945C140E9448
S1132AE06F140E9496148F770E943C09F70180832B
S1132AF00E9496140E943C09F80180830E94961457
S1132B000E943C09F40180830E9496140E9496144A
S1132B100E943C09F50180830E9496140E943C099E
S1132B20F60180830E94A0140E943C098883DF91EF
S1132B30CF911F910F91FF90EF90DF90CF90BF90B6
S1132B40AF909F908F9008958091150190911601F8
S1132B508130910589F01CF4892B39F00895823075
S1132B609105D1F0039741F1089581E090E09093AD
S1132B7016018093150108950E94E3090E94320A08
S1132B8085E095E00E94000A80EC0E94750981E1CD
S1132B9095E00E94000A08950E94E3090E94320A07
S1132BA08DE195E00E94000A80EC0E94750989E29B
S1132BB095E00E94000A089581E090E09093160148
S1132BC0809315010895DF92EF92FF920F931F9364
S1132BD0CF93DF93CDB7DEB7A6970FB6F894DEBFD9
S1132BE00FBECDBF80EF8AB98FE78BB98CE0EAE3E3
S1132BF0F1E0DE01119601900D928A95E1F70E94B1
S1132C00E309FE013D968AE0DF011D928A95E9F70A
S1132C10E12CF12C00E010E0083011050CF0C6C0E6
S1132C200230110509F4C2C00530110509F4BEC013
S1132C308BB18F708BB989B18F708F30C9F789B11F
S1132C408F708F30E1F38FE68BB989B18F708F303D
S1132C5071F48FE58BB989B18F708F3051F48FE3A4
S1132C608BB989B18F708F3071F392E003C090E01B
S1132C7001C091E08E3089F4E1E0F0E0EC0FFD1F3B
S1132C80E90FF11DE080F12C4AE050E0BE01635FE2
S1132C907F4FC7010E94B52336C08D3089F4E4E02C
S1132CA0F0E0EC0FFD1FE90FF11DE080F12C4AE08C
S1132CB050E0BE01635F7F4FC7010E94B52323C06C
S1132CC08B3089F4E7E0F0E0EC0FFD1FE90FF11D14
S1132CD0E080F12C4AE050E0BE01635F7F4FC70102
S1132CE00E94B52310C0EAE0F0E0EC0FFD1FE90FED
S1132CF0F11DE080F12C4AE050E0BE01635F7F4F9C
S1132D00C7010E94B523C7010E97029708F45FC05C
S1132D10F801EE0FFF1F81E090E08C0F9D1FE80F7C
S1132D20F91FF78AE68AD02EAE01435F5F4F602F0A
S1132D3080E00E94160A80EC0E94750949E653E07F
S1132D40602F81E00E94160A91E0083011050CF012
S1132D5090E081E00330110509F480E0892391E0DB
S1132D600630110509F490E0882351F0992341F0CD
S1132D706FEF6D0D40E053E081E00E94160A13C02E
S1132D8091E00330110509F090E081E0063011056F
S1132D9009F080E0892B39F06EEF6D0D40E053E0CF
S1132DA081E00E94160A0F5F1F4F11C091E00230AC
S1132DB0110509F090E081E00530110509F080E08B
S1132DC0892B19F00F5F1F4F02C000E010E09EE056
S1132DD0E916F10409F07FC08F89988D9C01220FB8
S1132DE0331F880F991F880F991F880F991F820F0F
S1132DF0931F298D3A8D820F931F883191050CF012
S1132E004DC02D8D3E8DA901440F551F220F331F38
S1132E10220F331F220F331F240F351F4F8D58A14C
S1132E20240F351F2C333105CCF54BA15CA1BA011D
S1132E30660F771F440F551F440F551F440F551F2E
S1132E40460F571F6DA17EA1460F571F4C335105E6
S1132E502CF5E8EBF6E09783868331872087538748
S1132E6042870E94320A85E395E00E94000A88E8BE
S1132E7093E105C0E0E9F1E03197F1F7019700979C
S1132E80C9F70E94A41580E197E205C0E0E9F1E0EA
S1132E903197F1F701970097C9F733C00E94320ABE
S1132EA08AE793E00E94000A80E197E205C0E0E926
S1132EB0F1E03197F1F701970097C9F70E94320AC0
S1132EC0E8EBF6E0428553856085718586819781BC
S1132ED00E941B0CA1CEAFE0EA16F10409F09CCECF
S1132EE08FE08AB98BB18E778BB90E94A41580E1EB
S1132EF097E205C0E0E9F1E03197F1F70197009717
S1132F00C9F7A6960FB6F894DEBF0FBECDBFDF910A
S1132F10CF911F910F91FF90EF90DF900895CF9282
S1132F20DF92EF92FF920F931F93CF93DF93CDB76E
S1132F30DEB7AA970FB6F894DEBF0FBECDBF8CE004
S1132F40EAE3F1E0DE01119601900D928A95E1F732
S1132F500E94E309FE013D968AE0DF011D928A95F5
S1132F60E9F7C12CD12C00E010E080EF8AB98FE79B
S1132F708BB9FF24F3940A3011050CF0F12C81E095
S1132F800430110509F480E08F2191E00730110528
S1132F9009F490E0882309F4BCC0992309F4B9C06A
S1132FA08BB18F708BB989B18F708F30C9F789B1AC
S1132FB08F708F30E1F38FE68BB989B18F708F30CA
S1132FC071F48FE58BB989B18F708F3051F48FE331
S1132FD08BB989B18F708F3071F392E003C090E0A8
S1132FE001C091E08E3089F4E1E0F0E0EC0FFD1FC8
S1132FF0E90FF11DC080D12C4AE050E0BE01635FAF
S11330007F4FC6010E94B52336C08D3089F4E4E0B9
S1133010F0E0EC0FFD1FE90FF11DC080D12C4AE058
S113302050E0BE01635F7F4FC6010E94B52323C0F9
S11330308B3089F4E7E0F0E0EC0FFD1FE90FF11DA0
S1133040C080D12C4AE050E0BE01635F7F4FC601CF
S11330500E94B52310C0EAE0F0E0EC0FFD1FE90F79
S1133060F11DC080D12C4AE050E0BE01635F7F4F68
S1133070C6010E94B523C6010E97029708F45AC0F0
S1133080F801EE0FFF1F81E090E08C0F9D1FE80F09
S1133090F91FD78AC68AE02EAE01435F5F4F602FC7
S11330A080E00E94160A80EC0E94750949E653E00C
S11330B0602F81E00E94160A81E00530110509F4B1
S11330C080E0F82281E00830110509F480E0FF2057
S11330D051F0882341F06FEF6E0D40E053E081E042
S11330E00E94160A13C091E00530110509F090E022
S11330F081E00830110509F080E0892B39F06EEF8A
S11331006E0D40E053E081E00E94160A0F5F1F4FEE
S113311011C091E00430110509F090E081E007301E
S1133120110509F080E0892B19F00F5F1F4F02C0D1
S113313000E010E09EE0C916D10409F084C089A122
S11331409AA1BC01660F771F880F991F880F991FDA
S1133150880F991F860F971F6BA17CA1860F971F5D
S11331608D3091050CF052C02FA138A5A901440F50
S1133170551F220F331F220F331F220F331F240F1B
S1133180351F49A55AA5420F531F403251050CF073
S11331903DC02B8D3C8DB901660F771F220F331F65
S11331A0220F331F220F331F260F371FAD8DBE8D05
S11331B0A20FB31FE8EBF6E0B183A083938382836D
S11331C055834483E28400852681682F8A2F0E94D8
S11331D0CD140E94320A83E495E00E94000A88E834
S11331E093E105C0E0E9F1E03197F1F70197009729
S11331F0C9F70E94A41580E197E205C0E0E9F1E077
S11332003197F1F701970097C9F733C00E94320A4A
S11332108AE793E00E94000A80E197E205C0E0E9B2
S1133220F1E03197F1F701970097C9F70E94320A4C
S1133230E8EBF6E04481558162817381808191815C
S11332400E94050D92CEAFE0CA16D10409F08DCECE
S11332508FE08AB98BB18E778BB90E94A41580E177
S113326097E205C0E0E9F1E03197F1F701970097A3
S1133270C9F7AA960FB6F894DEBF0FBECDBFDF9193
S1133280CF911F910F91FF90EF90DF90CF90089511
S11332900E94E3090E94320AE8EBF6E04285538576
S11332A060857185868197810E941B0C0E94E315BD
S11332B008950E94E3090E94320AE8EBF6E0448193
S11332C0558162817381808191810E94050D0E94E4
S11332D08F17089580911501909116018130910501
S11332E019F0029721F008950E94481908950E9448
S11332F05919089580911301909114018130910519
S113330089F01CF4892B39F0089582309105D1F0AD
S1133310039741F1089581E090E090931401809324
S1133320130108950E94E3090E94320A81E595E0A1
S11333300E94000A80EC0E94750988E595E00E94CD
S1133340000A08950E94E3090E94320A81E595E08B
S11333500E94000A80EC0E94750989E695E00E94AB
S1133360000A089581E090E0909314018093130182
S11333700895E0911001F0911101E830F10508F091
S113338071C0E75BFF4F0C946A2381E090E0909357
S113339011018093100108950E94E3090E94320AEA
S11333A08AE795E00E94000A80EC0E94750987E88C
S11333B095E00E94000A08950E94E3090E94320ADF
S11333C084E995E00E94000A80EC0E94750981EA74
S11333D095E00E94000A08950E94E3090E94320ABF
S11333E08EEA95E00E94000A80EC0E9475098EEB3B
S11333F095E00E94000A08950E94E3090E94320A9F
S11334008CEC95E00E94000A80EC0E9475098CED1A
S113341095E00E94000A08950E94E3090E94320A7E
S11334208AEE95E00E94000A80EC0E9475098BEFF9
S113343095E00E94000A08950E94E3090E94320A5E
S113344087E096E00E94000A80EC0E94750988E1FA
S113345096E00E94000A089586E090E0909311019E
S11334608093100108958FE08AB98BB18E7F8BB958
S1133470309B07C00FC0E0E9F1E03197F1F7019705
S113348002C080E197E20097B1F70E94320A0E94DD
S11334905310E9CF31990DC00E94B91980E197E228
S11334A005C0E0E9F1E03197F1F701970097C9F71A
S11334B008954C9916C080911F01909120010197A5
S11334C09093200180931F010E94F30D80E197E205
S11334D005C0E0E9F1E03197F1F701970097C9F7EA
S11334E0C2CF4E99C0CF80911F01909120010196C7
S11334F09093200180931F010E94F30D80E197E2D5
S113350005C0E0E9F1E03197F1F701970097C9F7B9
S1133510AACF8FE08AB98BB18E7F8BB9309B07C05D
S11335200FC0E0E9F1E03197F1F7019702C080E1C3
S113353097E20097B1F70E94320A0E94B613E9CFCE
S113354031990DC00E94B91980E197E205C0E0E904
S1133550F1E03197F1F701970097C9F708954C9975
S113356016C080911D0190911E01019790931E0138
S113357080931D010E94F91180E197E205C0E0E902
S1133580F1E03197F1F701970097C9F7C2CF4E994F
S1133590C0CF80911D0190911E01019690931E0150
S11335A080931D010E94F91180E197E205C0E0E9D2
S11335B0F1E03197F1F701970097C9F7AACF9093FB
S11335C018018093170184E296E00E94000A80E1CA
S11335D097E205C0E0E9F1E03197F1F70197009730
S11335E0C9F70E94B91908958FE08AB98BB18E7F0B
S11335F08BB9309914C006C0E0E9F1E03197F1F7D6
S1133600019702C080E197E20097B1F70E94320A65
S11336108091190190911A010E94DF1A089531993D
S11336200DC00E94B91980E197E205C0E0E9F1E01C
S11336303197F1F701970097C9F708954C9916C08F
S11336408091190190911A01019790931A01809326
S113365019010E94390A80E197E205C0E0E9F1E02E
S11336603197F1F701970097C9F7BECF4E99BCCFB8
S11336708091190190911A01019690931A018093F7
S113368019010E94390A80E197E205C0E0E9F1E0FE
S11336903197F1F701970097C9F7A6CF8FE08AB960
S11336A08BB18E7F8BB9309B07C00FC0E0E9F1E08E
S11336B03197F1F7019702C080E197E20097B1F7E3
S11336C00E94320A0E946A19E9CF31990DC00E9402
S11336D0B91980E197E205C0E0E9F1E03197F1F72B
S11336E001970097C9F708954C9916C08091150168
S11336F090911601019790931601809315010E94F1
S1133700A41580E197E205C0E0E9F1E03197F1F713
S113371001970097C9F7C2CF4E99C0CF8091150188
S113372090911601019690931601809315010E94C1
S1133730A41580E197E205C0E0E9F1E03197F1F7E3
S113374001970097C9F7AACFEF920F93E12C00E0FD
S113375020E041E061E080E00E94CD14E6E2F1E087
S11337601182108213821282A1E2B1E01C921582AE
S113377014821782168211961C9211971186108654
S11337801386128612961C92129715861486178633
S1133790168613961C921397118A108A138A128A1A
S11337A014961C920E94320A83E396E00E94000A57
S11337B080E197E205C0E0E9F1E03197F1F7019784
S11337C00097C9F70E94320A82E496E00E94000A38
S11337D080E197E205C0E0E9F1E03197F1F7019764
S11337E00097C9F70E94B91980E197E205C0E0E9A2
S11337F0F1E03197F1F701970097C9F70F91EF9036
S113380008950E94B91980E197E205C0E0E9F1E06A
S11338103197F1F701970097C9F708958091130143
S1133820909114018130910519F0029731F007C08D
S11338300E94A41B81E090E008950E94011C089559
S11338408FE08AB98BB18E7F8BB9309910C006C0D6
S1133850E0E9F1E03197F1F7019702C080E197E2E6
S11338600097B1F70E94320A0E940E1C0895319904
S11338700DC00E94B91980E197E205C0E0E9F1E0CA
S11338803197F1F701970097C9F708954C9916C03D
S113389080911301909114010197909314018093E6
S11338A013010E947A1980E197E205C0E0E9F1E092
S11338B03197F1F701970097C9F7C2CF4E99C0CF5E
S11338C080911301909114010196909314018093B7
S11338D013010E947A1980E197E205C0E0E9F1E062
S11338E03197F1F701970097C9F7AACF81E090E0EB
S11338F090931601809315010E94A4150E944E1BFB
S1133900089581E090E09093200180931F010E942C
S1133910F30D0E94331A089581E090E090931E0104
S113392080931D010E94F9110E94891A089581E073
S113393090E090931A01809319010E94390A0E9421
S1133940F41A089581E090E0909314018093130198
S11339500E947A190E94201C08950E94320A80E570
S113396096E00E94000A80EC0E9475098EE596E0BC
S11339700E94000A80E29EE405C0E0E9F1E031978C
S1133980F1F701970097C9F70E94320A88E696E09A
S11339900E94000A80EC0E94750984E796E00E9468
S11339A0000A80E29EE405C0E0E9F1E03197F1F716
S11339B001970097C9F780EC0E9475098BE796E0A0
S11339C00E94000A80E29EE405C0E0E9F1E031973C
S11339D0F1F701970097C9F780EC0E94750983E815
S11339E096E00E94000A80E29EE405C0E0E9F1E06E
S11339F03197F1F701970097C9F780EC0E94750998
S1133A008CE896E00E94000A80E29EE405C0E0E9AA
S1133A10F1E03197F1F701970097C9F70E94320A54
S1133A2047E956E064E080E00E94160A80EC0E94B8
S1133A3075094DE956E065E081E00E94160A80E3CD
S1133A4095E705C0E0E9F1E03197F1F701970097B8
S1133A50C9F70E94B919089580911001909111013C
S1133A6083309105A1F034F48130910551F002972F
S1133A7059F008958530910581F064F0069781F03E
S1133A8008950E94761C08950E94811C08950E9446
S1133A908C1C08950E94971C08950E94A21C0895EE
S1133AA00E94AD1C08958FE08AB98BB18E778BB9D3
S1133AB0309B07C00DC0E0E9F1E03197F1F70197C1
S1133AC002C080E197E20097B1F70E942C1DEBCF72
S1133AD031990AC081E0809312010E94320A80EF7A
S1133AE08AB98FE78BB908954C9916C0809110015B
S1133AF090911101019790931101809310010E94FC
S1133B00B91980E197E205C0E0E9F1E03197F1F7F6
S1133B1001970097C9F7C7CF4E99C5CF809110017F
S1133B2090911101019690931101809310010E94CC
S1133B30B91980E197E205C0E0E9F1E03197F1F7C6
S1133B4001970097C9F7AFCF3F924F925F926F9260
S1133B507F928F929F92AF92BF92CF92DF92EF9219
S1133B60FF920F931F93CF93DF9300D000D000D028
S1133B70CDB7DEB7382E480159019A01AB0160E098
S1133B8070E080E89FE30E946B2120E030E04AE788
S1133B9054E40E94CA226B017C019B01AC01C50163
S1133BA0B4010E946B210E94DD212B013C0120E025
S1133BB030E040E05FE3C701B6010E94CA22698396
S1133BC07A838B839C83812C912C54018BC020E0BD
S1133BD030E04AE755E469817A818B819C810E94B7
S1133BE0CA226B017C0120E030E040E85FE30E94E0
S1133BF06621882334F120E03FEF4FE757E4C70103
S1133C00B6010E94C5221816BCF420E030E040E260
S1133C1051E469817A818B819C810E94CA220E942D
S1133C20E42106C080E991E00197F1F76150710940
S1133C3061157105B9F70AC0C701B6010E94E421F4
S1133C4002C061E070E0CB010197F1F78BB121E094
S1133C5030E0032C02C0220F331F0A94E2F73E83A4
S1133C602D83822B8BB920E030E040E85FE3C7016D
S1133C70B6010E946621882334F120E03FEF4FE72C
S1133C8057E4C701B6010E94C5221816BCF420E00F
S1133C9030E040E251E469817A818B819C810E9409
S1133CA0CA220E94E42106C080E991E00197F1F75D
S1133CB06150710961157105B9F70AC0C701B601F0
S1133CC00E94E42102C061E070E0CB010197F1F7AA
S1133CD08BB13D81309538233BB98FEF881A980A10
S1133CE0A80AB80A84149504A604B7040CF46FCF88
S1133CF026960FB6F894DEBF0FBECDBFDF91CF91ED
S1133D001F910F91FF90EF90DF90CF90BF90AF90F5
S1133D109F908F907F906F905F904F903F90089509
S1133D204AB121E030E0B90102C0660F771F8A95DD
S1133D30E2F7CB01462B4AB99BB1809589238BB915
S1133D4008958F929F92AF92BF92CF92DF92EF929B
S1133D50FF920F931F93CF93DF93C0E0D0E074C022
S1133D60CE01880F991F8C010C55144FF801E59072
S1133D70F490FC01E25FF54F6591749180E090E06E
S1133D800E94132220E030E040EC5FE30E946B21AC
S1133D904B015C01339B5CC0EF2899F088B18460CF
S1133DA088B9F8016591749180E090E00E94132233
S1133DB0AB01BC019501840187E090E00E94A41D41
S1133DC004C087E090E00E94901E88B18B7F88B980
S1133DD020E030E04AE755E4C501B4010E94CA225C
S1133DE06B017C0120E030E040E85FE30E94662143
S1133DF0882324F120E03FEF4FE757E4C701B601E1
S1133E000E94C5221816ACF420E030E040E251E4F0
S1133E10C501B4010E94CA220E94E42106C080E9BF
S1133E2091E00197F1F76150710961157105B9F7D6
S1133E300AC0C701B6010E94E42102C061E070E03B
S1133E40CB010197F1F72196CB3CD1050CF488CF37
S1133E50DF91CF911F910F91FF90EF90DF90CF9062
S1133E60BF90AF909F908F9008952F923F924F9262
S1133E705F926F927F928F929F92AF92BF92CF92F6
S1133E80DF92EF92FF920F931F93CF93DF9300D0B3
S1133E9000D0CDB7DEB77C011A019B01770F440B2C
S1133EA0550B60E879EA83E090E00E944B233A8363
S1133EB029831C821B82C12CD12C9EC00B811C81A6
S1133EC0F8013196EE0FFF1FEE0DFF1D85919491C1
S1133ED0BC011816190634F489819A810E9437238B
S1133EE06B0119C09923BCF466277727681B790BEB
S1133EF089819A810E943723072E000C880B990B25
S1133F000E94152220E030E040EC5FE30E94CA22C8
S1133F100E94DD216B01339B78C088B1846088B92D
S1133F20B6010D2C000C880B990B0E9415222B0155
S1133F303C0126E636E646E65FE30E94CA224B01D0
S1133F405C01F801EE0FFF1FEE0DFF1D65917491EA
S1133F5080E090E00E941322AB01BC019501840132
S1133F6087E090E00E94A41D88B18B7F88B920E08F
S1133F7030E04AE755E4C301B2010E94CA224B0172
S1133F805C0120E030E040E85FE30E946621882382
S1133F9024F120E03FEF4FE757E4C501B4010E944C
S1133FA0C5221816ACF420E030E040E251E4C3012D
S1133FB0B2010E94CA220E94E42106C080E991E075
S1133FC00197F1F76150710961157105B9F70AC0DC
S1133FD0C501B4010E94E42102C061E070E0CB019C
S1133FE00197F1F787E090E00E94901E2B813C81BD
S1133FF02E5F3F4F3C832B83C101880F991F2B8178
S11340003C81281739070CF459CF0F900F900F906B
S11340100F90DF91CF911F910F91FF90EF90DF9060
S1134020CF90BF90AF909F908F907F906F905F9054
S11340304F903F902F9008958130910519F40E947C
S1134040A11E08958230910569F440910C015091AC
S11340500D0160910E0170910F0186E290E10E94C2
S1134060351F08958330910569F440910001509102
S11340700101609102017091030182EA90E00E94C3
S1134080351F08958430910569F4409108015091D9
S1134090090160910A0170910B0186EC9EE00E9477
S11340A0351F0895059761F440910401509105016D
S11340B060910601709107018AE39DE00E94351F1B
S11340C00895AF92BF92CF92DF92EF92FF920F9337
S11340D01F93CF93DF935C018B017A016901C0E0E8
S11340E0D0E046C0FE01EF5DFE4F8081882309F4D5
S11340F03EC0FE01EE0FFF1FEE0FFF1FEA5DFE4FF5
S1134100808191818017910791F5FE01EE0FFF1FC9
S1134110EE0FFF1FEA5DFE4F828193818E159F058E
S113412031F5C114D10419F5109212010E94320A1A
S1134130FE01EE0FFF1FEE0FFF1FEA5DFE4F6281CF
S11341407381808191810E94D91380E197E205C037
S1134150E0E9F1E03197F1F701970097C9F7C5015C
S11341600E941C200E94320A81E080931201219651
S1134170C530D1050CF4B6CFDF91CF911F910F91CB
S1134180FF90EF90DF90CF90BF90AF900895CF93C2
S1134190DF9300D000D000D0CDB7DEB78FE084B974
S11341A080EF8AB98FE78BB984EC87B98BE788B93C
S11341B019821A821B821C821D821E820F2EF7E333
S11341C0EF2EF02D04E02AE045E067E085E10E944F
S11341D0CD140E94E3090E94320A43EA56E064E0E7
S11341E080E00E94160A80EC0E9475094BEA56E0B2
S11341F062E081E00E94160A80E197E205C0E0E9EE
S1134200F1E03197F1F701970097C9F70E94320A5C
S1134210CE0106967C018E010B5F1F4F9E012C5F21
S11342203F4FAE014D5F5F4FBE016E5F7F4F0597FD
S11342300E945115309917C01092120181E090E04C
S113424090931101809310010E94B91980E197E2C3
S113425005C0E0E9F1E03197F1F701970097C9F75C
S11342600E94531DD5CF80911201882389F2EE80DC
S1134270F12C0D8110E02C8130E04B8150E06A81FB
S113428070E0898190E00E94A30AE8EBF6E089815E
S113429090E0918380838A8190E0938382838B81F1
S11342A090E0958384836C8170E0778366834D818D
S11342B050E0518740872E8130E0338722878091F8
S11342C01701909118010E946120A2CF0E945022F0
S11342D008F481E008950E947F210C948B220E94AF
S11342E0842258F00E947D2240F029F45F3F29F097
S11342F00C94742251110C94BF220C947A220E94C3
S11343009C2268F39923B1F3552391F3951B550B24
S1134310BB27AA2762177307840738F09F5F5F4F94
S1134320220F331F441FAA1FA9F335D00E2E3AF0D3
S1134330E0E832D091505040E695001CCAF72BD0EB
S1134340FE2F29D0660F771F881FBB1F261737073C
S11343504807AB07B0E809F0BB0B802DBF01FF276E
S113436093585F4F3AF09E3F510578F00C947422B5
S11343700C94BF225F3FE4F3983ED4F3869577957F
S11343806795B795F7959F5FC9F7880F911D969527
S1134390879597F90895E1E0660F771F881FBB1F83
S11343A0621773078407BA0720F0621B730B840B30
S11343B0BA0BEE1F88F7E09508950E94E4216894F3
S11343C0B1110C94BF2208950E94A42288F09F5733
S11343D098F0B92F9927B751B0F0E1F0660F771F25
S11343E0881F991F1AF0BA95C9F714C0B13091F01B
S11343F00E94BE22B1E008950C94BE22672F782F4C
S11344008827B85F39F0B93FCCF3869577956795DF
S1134410B395D9F73EF490958095709561957F4F4B
S11344208F4F9F4F0895E89409C097FB3EF49095F1
S11344308095709561957F4F8F4F9F4F9923A9F079
S1134440F92F96E9BB279395F69587957795679508
S1134450B795F111F8CFFAF4BB0F11F460FF1BC04C
S11344606F5F7F4F8F4F9F4F16C0882311F096E9DF
S113447011C0772321F09EE8872F762F05C066238D
S113448071F096E8862F70E060E02AF09A95660F46
S1134490771F881FDAF7880F9695879597F90895FF
S11344A0990F0008550FAA0BE0E8FEEF1616170641
S11344B0E807F907C0F012161306E407F50798F0A9
S11344C0621B730B840B950B39F40A2661F0232BC2
S11344D0242B252B21F408950A2609F4A140A6953E
S11344E08FEF811D811D089597F99F6780E870E023
S11344F060E008959FEF80EC089500240A94161656
S1134500170618060906089500240A9412161306BD
S1134510140605060895092E0394000C11F488234B
S113452052F0BB0F40F4BF2B11F460FF04C06F5F67
S11345307F4F8F4F9F4F089557FD9058440F551F3D
S113454059F05F3F71F04795880F97FB991F61F011
S11345509F3F79F087950895121613061406551F88
S1134560F2CF4695F1DF08C0161617061806991FF4
S1134570F1CF86957105610508940895E894BB27E9
S113458066277727CB0197F908950E94502208F4F3
S11345908FEF08950E94DD220C948B220E947D22CD
S11345A038F00E94842220F0952311F00C94742298
S11345B00C947A2211240C94BF220E949C2270F342
S11345C0959FC1F3950F50E0551F629FF001729FB4
S11345D0BB27F00DB11D639FAA27F00DB11DAA1FC3
S11345E0649F6627B00DA11D661F829F2227B00D10
S11345F0A11D621F739FB00DA11D621F839FA00D9B
S1134600611D221F749F3327A00D611D231F849FEA
S1134610600D211D822F762F6A2F11249F57504041
S11346209AF0F1F088234AF0EE0FFF1FBB1F661FBC
S1134630771F881F91505040A9F79E3F510580F085
S11346400C9474220C94BF225F3FE4F3983ED4F39D
S1134650869577956795B795F795E7959F5FC1F729
S1134660FE2B880F911D9695879597F9089597FBD2
S1134670072E16F4009407D077FD09D00E947F23FB
S113468007FC05D03EF4909581959F4F0895709551
S113469061957F4F0895052E97FB1EF400940E94A8
S11346A0622357FD07D00E94932307FC03D04EF4E6
S11346B00C94622350954095309521953F4F4F4F70
S11346C05F4F089590958095709561957F4F8F4FBA
S11346D09F4F0895EE0FFF1F0590F491E02D09946C
S11346E0A29FB001B39FC001A39F700D811D11242F
S11346F0911DB29F700D811D1124911D0895AA1B57
S1134700BB1B51E107C0AA1FBB1FA617B70710F0B8
S1134710A61BB70B881F991F5A95A9F780959095EA
S1134720BC01CD010895A1E21A2EAA1BBB1BFD01F9
S11347300DC0AA1FBB1FEE1FFF1FA217B307E4077C
S1134740F50720F0A21BB30BE40BF50B661F771FD4
S1134750881F991F1A9469F76095709580959095B4
S11347609B01AC01BD01CF0108954532510520F4F0
S1134770423010F00C94C023FB011082CB01089549
S1134780BB274A3031F4992322F4BDE290958195F8
S11347909F4F0C94CC23BB27FB015527AA27880FD6
S11347A0991FAA1FA41710F0A41B83955051B9F7A1
S11347B0A05DAA3308F0A95DA193009779F7B11120
S11347C0B1931192CB010C94FE25AEE0B0E0EBEE78
S11347D0F3E20C94B6260D891E8986E08C831A8335
S11347E009838FEF9FE79E838D83AE01475E5F4F02
S11347F06F89788DCE0101960E940724EF81F88598
S1134800E00FF11F10822E96E4E00C94D226ABE068
S1134810B0E0EDE0F4E20C94A8266C017B018A017F
S1134820FC0117821682838181FFCCC1CE010196DF
S11348303C01F6019381F70193FD859193FF8191EA
S11348407F01882309F4BAC1853239F493FD859137
S113485093FF81917F01853229F4B60190E00E9493
S11348600E26E7CF912C212C312CFFE1F315D8F043
S11348708B3279F038F4803279F08332A1F4232D2D
S113488020611DC08D3261F0803369F4232D2160D5
S113489016C0832D8260382EE32DE4603E2E2AC09C
S11348A0F32DF8601DC037FC2DC020ED280F2A30F1
S11348B040F08E32B9F436FC81C1232D2064322EAF
S11348C019C036FE06C08AE0989E200D1124922E4F
S11348D011C0EAE02E9E200D1124222EF32DF06249
S11348E03F2E08C08C3621F4832D8068382E02C0F8
S11348F0883641F4F70193FD859193FF81917F01FF
S11349008111B3CF982F9F7D9554933028F40C5F79
S11349101F4F9FE399830DC0833631F0833771F0C5
S1134920833509F059C021C0F801808189830E5F65
S11349301F4F88248394912C530113C02801F2E063
S11349404F0E511CF801A080B18036FE03C0692DC2
S113495070E002C06FEF7FEFC5010E94F3254C01A8
S11349608201F32DFF773F2E16C0280122E0420E6C
S1134970511CF801A080B18036FE03C0692D70E09F
S113498002C06FEF7FEFC5010E94E8254C01F32DB3
S1134990F0683F2E820133FC1BC0822D90E0881604
S11349A09906B0F4B60180E290E00E940E262A94A3
S11349B0F4CFF50137FC859137FE81915F01B60193
S11349C090E00E940E2621102A9421E0821A910878
S11349D08114910471F7E8C0843611F0893641F5E9
S11349E0F80137FE07C060817181828193810C5F79
S11349F01F4F08C060817181072E000C880B990B32
S1134A000E5F1F4FF32DFF763F2E97FF09C0909541
S1134A108095709561957F4F8F4F9F4FF0683F2E23
S1134A202AE030E0A3010E944A26882E861845C059
S1134A30853731F4232D2F7EB22E2AE030E025C0B5
S1134A40932D997FB92E8F36C1F018F4883579F0FB
S1134A50B5C0803719F0883721F0B0C0E92FE06184
S1134A60BE2EB4FE0DC0FB2DF460BF2E09C034FE73
S1134A700AC0292F2660B22E06C028E030E005C007
S1134A8020E130E002C020E132E0F801B7FE07C0C7
S1134A9060817181828193810C5F1F4F06C06081A8
S1134AA0718180E090E00E5F1F4FA3010E944A26AF
S1134AB0882E8618FB2DFF773F2E36FE0DC0232D42
S1134AC02E7FA22E891458F434FE0BC032FC09C088
S1134AD0832D8E7EA82E05C0B82CA32C03C0B82C21
S1134AE001C0B92CA4FE0FC0FE01E80DF11D8081A8
S1134AF0803321F49A2D997EA92E09C0A2FE06C006
S1134B00B394B39404C08A2D867809F0B394A3FCBB
S1134B1011C0A0FE06C0B21488F4280C922C9B1875
S1134B200EC0B21460F4B60180E290E00E940E263A
S1134B30B394F7CFB21418F42B1802C0982C212C7C
S1134B40A4FE10C0B60180E390E00E940E26A2FEEF
S1134B5017C0A1FC03C088E790E002C088E590E09C
S1134B60B6010CC08A2D867859F0A1FE02C08BE2F2
S1134B7001C080E2A7FC8DE2B60190E00E940E26FF
S1134B80891438F4B60180E390E00E940E269A94CA
S1134B90F7CF8A94F301E80DF11D8081B60190E00E
S1134BA00E940E268110F5CF222009F442CEB601D0
S1134BB080E290E00E940E262A94F6CFF6018681C8
S1134BC0978102C08FEF9FEF2B96E2E10C94C426ED
S1134BD0FC010590615070400110D8F780959095C4
S1134BE08E0F9F1F0895FC016150704001900110C9
S1134BF0D8F7809590958E0F9F1F0895DC01FC01D6
S1134C00672F71917723E1F7329704C07C916D93FC
S1134C1070836291AE17BF07C8F308950F931F9373
S1134C20CF93DF93FB01238121FD03C08FEF9FEF1F
S1134C302CC022FF16C0468157812481358142173A
S1134C40530744F4A081B1819D012F5F3F4F31830D
S1134C5020838C93268137812F5F3F4F37832683B0
S1134C6014C08B01EC01FB010084F185E02D099552
S1134C70892BE1F6D80116968D919C911797019690
S1134C8017969C938E931697CE01DF91CF911F9127
S1134C900F910895FA01AA27283051F1203181F1AA
S1134CA0E8946F936E7F6E5F7F4F8F4F9F4FAF4F30
S1134CB0B1E03ED0B4E03CD0670F781F891F9A1F43
S1134CC0A11D680F791F8A1F911DA11D6A0F711DF7
S1134CD0811D911DA11D20D009F468943F912AE003
S1134CE0269F11243019305D3193DEF6CF010895EB
S1134CF0462F4770405D4193B3E00FD0C9F7F6CF1C
S1134D00462F4F70405D4A3318F0495D31FD4052E3
S1134D10419302D0A9F7EACFB4E0A6959795879579
S1134D2077956795BA95C9F7009761057105089558
S1134D309B01AC010A2E0694579547953795279504
S1134D40BA95C9F7620F731F841F951FA01D08959C
S1134D502F923F924F925F926F927F928F929F9287
S1134D60AF92BF92CF92DF92EF92FF920F931F9375
S1134D70CF93DF93CDB7DEB7CA1BDB0B0FB6F89426
S1134D80DEBF0FBECDBF09942A88398848885F8466
S1134D906E847D848C849B84AA84B984C884DF80D7
S1134DA0EE80FD800C811B81AA81B981CE0FD11DBB
S1134DB00FB6F894DEBF0FBECDBFED010895F89491
S1054DC0FFCF1F
S1134DC25B02500063009000580096008200960037
S1134DD201000101000100010001000100010001C4
S1134DE20001010100000A0005000A000B000A008C
S1134DF208000A000C000A000D000E000F07080943
S1134E020405060102033E3E205069726174657313
S1134E12205468656D650020202047616D6520542B
S1134E2268726F6E65730020202050697261746528
S1134E3273205468656D65003E3E2047616D6520B0
S1134E425468726F6E6573003E3E2046757220454B
S1134E526C69736500202020502E50616E74686561
S1134E62720020202046757220456C697365003EED
S1134E723E20502E50616E74686572003E3E20548E
S1134E8275727469730054494D453A203025643A69
S1134E923025643A30256420200054494D453A2097
S1134EA23025643A3025643A256420200054494D63
S1134EB2453A203025643A25643A3025642020009E
S1134EC254494D453A2025643A3025643A302564E4
S1134ED220200054494D453A2025643A3025643A4D
S1134EE2256420200054494D453A2025643A25641E
S1134EF23A30256420200054494D453A2030256437
S1134F023A25643A256420200054494D453A202527
S1134F12643A25643A2564202000444154453A20E9
S1134F2225642F3025642F302564200044415445E4
S1134F323A2025642F3025642F25642000444154EF
S1134F42453A2025642F25642F30256420004441EE
S1134F5254453A2025642F25642F256420002564B6
S1134F623A25643A25642020202020202020002590
S1134F72642F3025642F3025642020202020200037
S1134F8225642F3025642F25642020202020200032
S1134F9225642F25642F3025642020202020200022
S1134FA225642F25642F2564202020202020003012
S1134FB225643A302564202020202020202020202F
S1134FC220003025643A256420202020202020203F
S1134FD22020200020202020416C61726D2030317D
S1134FE220203E3E003C3C2020416C61726D20300A
S1134FF23220203E3E003C3C2020416C61726D20F8
S1135002303320203E3E003C3C2020416C61726DD6
S113501220303420203E3E003C3C2020416C617212
S11350226D20303520202020005E00414C41524D3D
S11350322053455420444F4E4500494E56414C4955
S11350424420494E505554003E3E416C61726D30CD
S113505225643D203025643A302564003E3E416C8F
S113506261726D3025643D2025643A302564003E2A
S11350723E416C61726D3025643D203025643A25D1
S113508264003E3E416C61726D3025643D202564AE
S11350923A256400203C4F4E3E204F46462044456C
S11350A24C20202000204F4E203C4F46463E2044B8
S11350B2454C20202000204F4E204F4646203C44A1
S11350C2454C3E20202000416C61726D3025643DC8
S11350D2203025643A302564202000416C61726DD1
S11350E23025643D2025643A302564202000416C3B
S11350F261726D3025643D203025643A2564202098
S113510200416C61726D3025643D2025643A25644A
S11351122020005354415455533A4E4F5420534582
S1135122542020005354415455533A4F46462020AC
S11351322020202020005354415455533A4F4E20EE
S11351422020202020202000414C41524D20495350
S1135152204F4E00414C41524D204953204F464668
S113516200414C41524D2049532044454C4554453D
S1135172440049542753203025643A3025642020C2
S11351822020202000495427532025643A302564E6
S11351922020202020200049542753203025643A1F
S11351A225642020202020200049542753202564F0
S11351B23A256420202020202000414C41524D20D9
S11351C254494D45003E3E205365742054696D6533
S11351D2002020205365742044617465002020203F
S11351E25365742054696D65003E3E2053657420F6
S11351F2446174650054494D452053455420444F3D
S11352024E4500444154452053455420444F4E4595
S11352120053757265203F003C5945533E202020BF
S113522220202020204E4F200020594553202020AA
S113523220202020203C4E4F3E003E3E20536574E9
S113524220436C6F636B00203E2053657420416CD5
S113525261726D00203E2053657420436C6F636B52
S1135262003E3E2053657420416C61726D003E3EE7
S113527220416C61726D2053746174757300203E19
S113528220416C61726D20546F6E6500203E204196
S11352926C61726D20537461747573003E3E2041DB
S11352A26C61726D20546F6E65003E3E20466163F0
S11352B2746F727920526573657400203E204162D6
S11352C26F757420557300203E20466163746F72BB
S11352D279205265736574003E3E2041626F757495
S11352E220557300414C41524D20544F4E4520539A
S11352F2455400524553455420434F4D504C455458
S113530245004558495420544845204D454E5500C2
S113531250524F4A454354204C4F4355530056650F
S11353227220312E302E300050524F4A45435420C1
S113533242593A005359414D414C0041414B4B4172
S11353425348004348414C494E445500414B494C53
S1135352412020202020005448414E4B00594F55F3
S11353623A290057454C434F4D45002D5445414D74
S10B5372204C4F4355532D005C
S9030000FC
